{
  "_format": "hh-sol-artifact-1",
  "contractName": "LockEth",
  "sourceName": "contracts/lock.sol",
  "abi": [
    {
      "inputs": [],
      "stateMutability": "nonpayable",
      "type": "constructor"
    },
    {
      "anonymous": false,
      "inputs": [
        {
          "indexed": false,
          "internalType": "address",
          "name": "sender",
          "type": "address"
        },
        {
          "indexed": false,
          "internalType": "uint256",
          "name": "amount",
          "type": "uint256"
        },
        {
          "indexed": false,
          "internalType": "uint256",
          "name": "period",
          "type": "uint256"
        }
      ],
      "name": "Deposit",
      "type": "event"
    },
    {
      "anonymous": false,
      "inputs": [
        {
          "indexed": false,
          "internalType": "address",
          "name": "receiver",
          "type": "address"
        },
        {
          "indexed": false,
          "internalType": "uint256",
          "name": "amount",
          "type": "uint256"
        }
      ],
      "name": "Withdraw",
      "type": "event"
    },
    {
      "inputs": [
        {
          "internalType": "uint256",
          "name": "lockTime",
          "type": "uint256"
        }
      ],
      "name": "deposit",
      "outputs": [],
      "stateMutability": "payable",
      "type": "function"
    },
    {
      "inputs": [
        {
          "internalType": "address",
          "name": "to",
          "type": "address"
        }
      ],
      "name": "withdraw",
      "outputs": [],
      "stateMutability": "nonpayable",
      "type": "function"
    }
  ],
  "bytecode": "0x608060405234801561001057600080fd5b5061046f806100206000396000f3fe6080604052600436106100295760003560e01c806351cff8d91461002e578063b6b55f2514610057575b600080fd5b34801561003a57600080fd5b506100556004803603810190610050919061027a565b610073565b005b610071600480360381019061006c91906102a3565b6101a5565b005b6000803373ffffffffffffffffffffffffffffffffffffffff1673ffffffffffffffffffffffffffffffffffffffff168152602001908152602001600020600001544210156100c157600080fd5b60008060003373ffffffffffffffffffffffffffffffffffffffff1673ffffffffffffffffffffffffffffffffffffffff168152602001908152602001600020905060008160010154905060008260000181905550600082600101819055508273ffffffffffffffffffffffffffffffffffffffff166108fc829081150290604051600060405180830381858888f19350505050158015610166573d6000803e3d6000fd5b507f884edad9ce6fa2440d8a54cc123490eb96d2768479d49ff9c7366125a942436483826040516101989291906102ea565b60405180910390a1505050565b600034116101b257600080fd5b60008060003373ffffffffffffffffffffffffffffffffffffffff1673ffffffffffffffffffffffffffffffffffffffff16815260200190815260200160002090508142610200919061034a565b81600001819055503481600101819055507f90890809c654f11d6e72a28fa60149770a0d11ec6c92319d6ceb2bb0a4ea1a1533348460405161024493929190610313565b60405180910390a15050565b60008135905061025f8161040b565b92915050565b60008135905061027481610422565b92915050565b60006020828403121561028c57600080fd5b600061029a84828501610250565b91505092915050565b6000602082840312156102b557600080fd5b60006102c384828501610265565b91505092915050565b6102d5816103a0565b82525050565b6102e4816103d2565b82525050565b60006040820190506102ff60008301856102cc565b61030c60208301846102db565b9392505050565b600060608201905061032860008301866102cc565b61033560208301856102db565b61034260408301846102db565b949350505050565b6000610355826103d2565b9150610360836103d2565b9250827fffffffffffffffffffffffffffffffffffffffffffffffffffffffffffffffff03821115610395576103946103dc565b5b828201905092915050565b60006103ab826103b2565b9050919050565b600073ffffffffffffffffffffffffffffffffffffffff82169050919050565b6000819050919050565b7f4e487b7100000000000000000000000000000000000000000000000000000000600052601160045260246000fd5b610414816103a0565b811461041f57600080fd5b50565b61042b816103d2565b811461043657600080fd5b5056fea2646970667358221220e874c9b9fd80dc37544cb5345d95a5499e9cf68424e6b6543c78418624bf9b9b64736f6c63430008000033",
  "linkReferences": {},
  "deployedLinkReferences": {}
}