{
  "_format": "hh-sol-artifact-1",
  "contractName": "LockEth",
  "sourceName": "contracts/lock.sol",
  "abi": [
    {
      "inputs": [],
      "stateMutability": "nonpayable",
      "type": "constructor"
    },
    {
      "anonymous": false,
      "inputs": [
        {
          "indexed": false,
          "internalType": "address",
          "name": "sender",
          "type": "address"
        },
        {
          "indexed": false,
          "internalType": "uint256",
          "name": "amount",
          "type": "uint256"
        },
        {
          "indexed": false,
          "internalType": "uint256",
          "name": "count",
          "type": "uint256"
        }
      ],
      "name": "Deposit",
      "type": "event"
    },
    {
      "anonymous": false,
      "inputs": [
        {
          "indexed": false,
          "internalType": "address",
          "name": "receiver",
          "type": "address"
        },
        {
          "indexed": false,
          "internalType": "uint256",
          "name": "amount",
          "type": "uint256"
        }
      ],
      "name": "Withdraw",
      "type": "event"
    },
    {
      "inputs": [
        {
          "internalType": "uint256",
          "name": "blocks",
          "type": "uint256"
        }
      ],
      "name": "deposit",
      "outputs": [],
      "stateMutability": "payable",
      "type": "function"
    },
    {
      "inputs": [
        {
          "internalType": "address",
          "name": "to",
          "type": "address"
        }
      ],
      "name": "withdraw",
      "outputs": [],
      "stateMutability": "nonpayable",
      "type": "function"
    }
  ],
  "bytecode": "0x608060405234801561001057600080fd5b5061047c806100206000396000f3fe6080604052600436106100295760003560e01c806351cff8d91461002e578063b6b55f2514610057575b600080fd5b34801561003a57600080fd5b5061005560048036038101906100509190610287565b610073565b005b610071600480360381019061006c91906102b0565b6101a5565b005b6000803373ffffffffffffffffffffffffffffffffffffffff1673ffffffffffffffffffffffffffffffffffffffff168152602001908152602001600020600001544310156100c157600080fd5b60008060003373ffffffffffffffffffffffffffffffffffffffff1673ffffffffffffffffffffffffffffffffffffffff168152602001908152602001600020905060008160010154905060008260000181905550600082600101819055508273ffffffffffffffffffffffffffffffffffffffff166108fc829081150290604051600060405180830381858888f19350505050158015610166573d6000803e3d6000fd5b507f884edad9ce6fa2440d8a54cc123490eb96d2768479d49ff9c7366125a942436483826040516101989291906102f7565b60405180910390a1505050565b600081116101b257600080fd5b600034116101bf57600080fd5b60008060003373ffffffffffffffffffffffffffffffffffffffff1673ffffffffffffffffffffffffffffffffffffffff1681526020019081526020016000209050814361020d9190610357565b81600001819055503481600101819055507f90890809c654f11d6e72a28fa60149770a0d11ec6c92319d6ceb2bb0a4ea1a1533348460405161025193929190610320565b60405180910390a15050565b60008135905061026c81610418565b92915050565b6000813590506102818161042f565b92915050565b60006020828403121561029957600080fd5b60006102a78482850161025d565b91505092915050565b6000602082840312156102c257600080fd5b60006102d084828501610272565b91505092915050565b6102e2816103ad565b82525050565b6102f1816103df565b82525050565b600060408201905061030c60008301856102d9565b61031960208301846102e8565b9392505050565b600060608201905061033560008301866102d9565b61034260208301856102e8565b61034f60408301846102e8565b949350505050565b6000610362826103df565b915061036d836103df565b9250827fffffffffffffffffffffffffffffffffffffffffffffffffffffffffffffffff038211156103a2576103a16103e9565b5b828201905092915050565b60006103b8826103bf565b9050919050565b600073ffffffffffffffffffffffffffffffffffffffff82169050919050565b6000819050919050565b7f4e487b7100000000000000000000000000000000000000000000000000000000600052601160045260246000fd5b610421816103ad565b811461042c57600080fd5b50565b610438816103df565b811461044357600080fd5b5056fea2646970667358221220d19c01049eec847de043fac28ef8644c72e9289203b8b173fe68e9a4f93e434c64736f6c63430008000033",
  "linkReferences": {},
  "deployedLinkReferences": {}
}